{
  "transactions": [
    {
      "hash": "0xa0998148cd90cfcc090d5587bc3313709ab96dd0f1a34e85f24699ab4e72ebfc",
      "transactionType": "CALL",
      "contractName": null,
      "contractAddress": "0x84b9b910527ad5c03a9ca831909e21e236ea7b06",
      "function": "transferAndCall(address,uint256,bytes)",
      "arguments": [
        "0xDA3b641D438362C440Ac5458c57e00a712b66700",
        "3000000000000000000",
        "0x1456ee7a105733b21d26c489a19813a0dad564dc583635c55e6e968bf7b87c6c"
      ],
      "transaction": {
        "from": "0xfb3dbe5fbbf1e62400723a84767a00340bfc17bf",
        "to": "0x84b9b910527ad5c03a9ca831909e21e236ea7b06",
        "gas": "0x1c1f3",
        "value": "0x0",
        "input": "0x4000aea0000000000000000000000000da3b641d438362c440ac5458c57e00a712b6670000000000000000000000000000000000000000000000000029a2241af62c0000000000000000000000000000000000000000000000000000000000000000006000000000000000000000000000000000000000000000000000000000000000201456ee7a105733b21d26c489a19813a0dad564dc583635c55e6e968bf7b87c6c",
        "nonce": "0x1a",
        "chainId": "0x61"
      },
      "additionalContracts": [],
      "isFixedGasLimit": false
    }
  ],
  "receipts": [
    {
      "status": "0x1",
      "cumulativeGasUsed": "0x6ff54",
      "logs": [
        {
          "address": "0x84b9b910527ad5c03a9ca831909e21e236ea7b06",
          "topics": [
            "0xddf252ad1be2c89b69c2b068fc378daa952ba7f163c4a11628f55a4df523b3ef",
            "0x000000000000000000000000fb3dbe5fbbf1e62400723a84767a00340bfc17bf",
            "0x000000000000000000000000da3b641d438362c440ac5458c57e00a712b66700"
          ],
          "data": "0x00000000000000000000000000000000000000000000000029a2241af62c0000",
          "blockHash": "0x25cb273dcc816f7fb3226958880dbdc54926649e3256c824d662b7f63e11e444",
          "blockNumber": "0x2c942d5",
          "transactionHash": "0xa0998148cd90cfcc090d5587bc3313709ab96dd0f1a34e85f24699ab4e72ebfc",
          "transactionIndex": "0x3",
          "logIndex": "0xa",
          "removed": false
        },
        {
          "address": "0x84b9b910527ad5c03a9ca831909e21e236ea7b06",
          "topics": [
            "0xe19260aff97b920c7df27010903aeb9c8d2be5d310a2c67824cf3f15396e4c16",
            "0x000000000000000000000000fb3dbe5fbbf1e62400723a84767a00340bfc17bf",
            "0x000000000000000000000000da3b641d438362c440ac5458c57e00a712b66700"
          ],
          "data": "0x00000000000000000000000000000000000000000000000029a2241af62c0000000000000000000000000000000000000000000000000000000000000000004000000000000000000000000000000000000000000000000000000000000000201456ee7a105733b21d26c489a19813a0dad564dc583635c55e6e968bf7b87c6c",
          "blockHash": "0x25cb273dcc816f7fb3226958880dbdc54926649e3256c824d662b7f63e11e444",
          "blockNumber": "0x2c942d5",
          "transactionHash": "0xa0998148cd90cfcc090d5587bc3313709ab96dd0f1a34e85f24699ab4e72ebfc",
          "transactionIndex": "0x3",
          "logIndex": "0xb",
          "removed": false
        },
        {
          "address": "0xda3b641d438362c440ac5458c57e00a712b66700",
          "topics": [
            "0x1ced9348ff549fceab2ac57cd3a9de38edaaab274b725ee82c23e8fc8c4eec7a",
            "0x1456ee7a105733b21d26c489a19813a0dad564dc583635c55e6e968bf7b87c6c"
          ],
          "data": "0x000000000000000000000000000000000000000000000000000000000000000000000000000000000000000000000000000000000000000029a2241af62c0000",
          "blockHash": "0x25cb273dcc816f7fb3226958880dbdc54926649e3256c824d662b7f63e11e444",
          "blockNumber": "0x2c942d5",
          "transactionHash": "0xa0998148cd90cfcc090d5587bc3313709ab96dd0f1a34e85f24699ab4e72ebfc",
          "transactionIndex": "0x3",
          "logIndex": "0xc",
          "removed": false
        }
      ],
      "logsBloom": "0x00000000000008000010000000000000000000000000000000000000020000000000000000000000000000000000000000000020000000000000000000000000000000000000000000000008000000000000081000000000000020000020000000000000000000000000000008000006000000000000000000030010000040000000000000000000000000000000000000000020000000000000000000000000000000000000000000000000000000000000000000000100000000100000000000000042000000000000000000000000000000000010000000000000000000000400000000000000800000000000000000000000000000000000000000000000",
      "type": "0x0",
      "transactionHash": "0xa0998148cd90cfcc090d5587bc3313709ab96dd0f1a34e85f24699ab4e72ebfc",
      "transactionIndex": "0x3",
      "blockHash": "0x25cb273dcc816f7fb3226958880dbdc54926649e3256c824d662b7f63e11e444",
      "blockNumber": "0x2c942d5",
      "gasUsed": "0x133a9",
      "effectiveGasPrice": "0xb2d05e00",
      "from": "0xfb3dbe5fbbf1e62400723a84767a00340bfc17bf",
      "to": "0x84b9b910527ad5c03a9ca831909e21e236ea7b06",
      "contractAddress": null
    }
  ],
  "libraries": [],
  "pending": [],
  "returns": {},
  "timestamp": 1734954274,
  "chain": 97,
  "commit": "fb0aefc"
}